S00E0000752D626F6F742E73726563C0
S31581700000B80000EA14F09FE514F09FE514F09FE5BF
S3158170001014F09FE514F09FE514F09FE514F09FE5C9
S3158170002060007081C0007081200170818001708153
S31581700030E001708140027081A0027081EFBEADDEF9
S31581700040DEC0AD0B0000A0E10000A0E10000A0E1E0
S315817000500000A0E10000A0E10000A0E10000A0E1A5
S3158170006028D01FE500E08DE500E04FE104E08DE5E5
S3158170007013D0A0E30DF069E10FE0A0E10EF0B0E1DD
S3158170008048D04DE2FF1F8DE850201FE50C0092E8A5
S3158170009048008DE234508DE20E10A0E10F0085E8A4
S315817000A00D00A0E131B400EB0000A0E10000A0E1F9
S315817000B00000A0E10000A0E10000A0E10000A0E145
S315817000C088D01FE500E08DE500E04FE104E08DE525
S315817000D013D0A0E30DF069E10FE0A0E10EF0B0E17D
S315817000E048D04DE2FF1F8DE8B0201FE50C0092E8E5
S315817000F048008DE234508DE20E10A0E10F0085E844
S315817001000D00A0E131B400EB0000A0E10000A0E198
S315817001100000A0E10000A0E10000A0E10000A0E1E4
S31581700120E8D01FE500E08DE500E04FE104E08DE564
S3158170013013D0A0E30DF069E10FE0A0E10EF0B0E11C
S3158170014048D04DE2FF1F8DE810211FE50C0092E823
S3158170015048008DE234508DE20E10A0E10F0085E8E3
S315817001600D00A0E121B400EB0000A0E10000A0E148
S315817001700000A0E10000A0E10000A0E10000A0E184
S3158170018048D11FE500E08DE500E04FE104E08DE5A3
S3158170019013D0A0E30DF069E10FE0A0E10EF0B0E1BC
S315817001A048D04DE2FF1F8DE870211FE50C0092E863
S315817001B048008DE234508DE20E10A0E10F0085E883
S315817001C00D00A0E1B9B300EB0000A0E10000A0E151
S315817001D00000A0E10000A0E10000A0E10000A0E124
S315817001E0A8D11FE500E08DE500E04FE104E08DE5E3
S315817001F013D0A0E30DF069E10FE0A0E10EF0B0E15C
S3158170020048D04DE2FF1F8DE8D0211FE50C0092E8A2
S3158170021048008DE234508DE20E10A0E10F0085E822
S315817002200D00A0E1C1B300EB0000A0E10000A0E1E8
S315817002300000A0E10000A0E10000A0E10000A0E1C3
S3158170024008D21FE500E08DE500E04FE104E08DE521
S3158170025013D0A0E30DF069E10FE0A0E10EF0B0E1FB
S3158170026048D04DE2FF1F8DE830221FE50C0092E8E1
S3158170027048008DE234508DE20E10A0E10F0085E8C2
S315817002800D00A0E185B300EB0000A0E10000A0E1C4
S315817002900000A0E10000A0E10000A0E10000A0E163
S315817002A068D21FE500E08DE500E04FE104E08DE561
S315817002B013D0A0E30DF069E10FE0A0E10EF0B0E19B
S315817002C048D04DE2FF1F8DE890221FE50C0092E821
S315817002D048008DE234508DE20E10A0E10F0085E862
S315817002E00D00A0E189B300EB160000EA00000FE172
S315817002F01F00C0E3D30080E300F029E1010000EB29
S315817003006E0000EB1EFF2FE10000A0E37AFF17EE6F
S31581700310FDFFFF1A170F08EE150F07EE100F11EE7E
S31581700320030CC0E38700C0E3020AC0E3020080E3E6
S31581700330010A80E3100F01EE0EC0A0E1530000EBBD
S315817003400CE0A0E10EF0A0E1E7FFFFEA10402DE995
S3158170035026B300EB3E0300EB5B0300EB150000EB6D
S315817003600000A0E3170F07EE1080BDE80030A0E310
S315817003707EFF17EEFDFFFF1A9A3F07EE1EFF2FE1F4
S3158170038070402DE90040A0E10150A0E10C0300EB23
S31581700390000050E37080BD08050054E10200003A08
S315817003A00030A0E39A3F07EE7080BDE83E4F07EEBE
S315817003B0204084E2F7FFFFEA1EFF2FE180B44F46AB
S315817003C080B40122044B52425A61083200201A616C
S315817003D004BC914680BC7047000CC201104B30B58D
S315817003E0CE4600B598690F49C0432CF0C9FE49467F
S315817003F04B46B431B0330A68824209D80A681C68A0
S31581700400821A12191A600860186804BC914630BD48
S315817004100C68054D1A6852191218121BF2E7C046FC
S31581700420000CC201C05D00000CBB020030B5CE4627
S3158170043000B50400FFF7D2FF001B04BC914630BDA6
S315817004400C49182370B5CE4606005E4300B58B699C
S315817004500125DB43002E02DC04BC914670BD8A699E
S31581700460D243934203D29B1A9E191300F2E7AC1AB8
S31581700470E318F9E7000CC2014B4608B5FFF7AEFFEA
S31581700480002104BC914600BDFA20800070470000AF
S3158170049018D09FE507D0CDE3C8D04DE207D0CDE324
S315817004A00D90A0E100502DE910B300EB0090BDE8EE
S315817004B0307F000000000000000000000000000096
S315817004C078009FE50700C0E300D0A0E11BB300EB85
S315817004D000D0A0E10090A0E100B300EB0000A0E3A2
S315817004E0E2B200EB400099E50700C0E300D0A0E1DD
S315817004F0009099E5C89049E20CE08FE2440099E555
S3158170050000E08EE0300099E5210100EA160100EBEA
S315817005107BFFFFEB28009FE528309FE50010A0E365
S31581700520002053E00D0000EBC4B200EBB7B200EBD4
S315817005300900A0E1301099E50CE09FE51EFF2FE1DF
S31581700540307F000040FC7381FCAD778159B2708138
S3158170055000000000000000000000000000000000A4
S31581700560033010E200C0A0E11E00001A011481E17F
S31581700570011881E10130A0E1100052E30F0000BA49
S3158170058000412DE90180A0E101E0A0E1402052E225
S315817005900A41ACA80A41ACA80A41ACA80A41ACA8E8
S315817005A0F9FFFFCA0081BD08200012E30A41AC1829
S315817005B00A41AC18100012E30A41AC180041BDE83B
S315817005C0080012E30A00AC18040012E304108C14BC
S315817005D0020012E30110CC140110CC14010012E355
S315817005E00110CC141EFF2FE1042052E2F7FFFFBAEF
S315817005F0020053E30110CCB40110CCD40110CCE4C9
S31581700600032082E0D8FFFFEA010050E10EF0A001DD
S3158170061011402DE9042052E22B0000BA03C010E28A
S3158170062000F0D1F53000001A03C011E23A00001AC9
S315817006301C2052E2E0012DE90C0000BA00F0D1F5E0
S31581700640602052E21CF0D1F5020000BA3CF0D1F57F
S315817006505CF0D1F57CF0D1F5F851B1E8202052E209
S31581700660F851A0E8FAFFFFAA600072E3F9FFFFAACA
S315817006701CC012E220C06CE20CF08F10110000EAEF
S315817006800000A0E1043091E4044091E4045091E4C7
S31581700690046091E4047091E4048091E404E091E44F
S315817006A00CF08FE00000A0E10000A0E1043080E44E
S315817006B0044080E4045080E4046080E4047080E443
S315817006C0048080E404E080E4E001BDE8822FB0E13B
S315817006D00130D1140140D12401C0D1240130C0141C
S315817006E00140C02401C0C0241180BDE804C06CE201
S315817006F002005CE30130D1C40140D1A401E0D1E4B0
S315817007000130C0C40140C0A40C2052E001E0C0E4B5
S31581700710EDFFFFBA03C011E2C4FFFF0A0310C1E304
S3158170072002005CE304E091E42C00000A570000CAE1
S315817007301C2052E21F0000BAE0032DE900F0D1F5CA
S31581700740602052E21CF0D1F5020000BA3CF0D1F57E
S315817007505CF0D1F57CF0D1F5F000B1E82E34A0E1F2
S31581700760202052E20053B1E8043C83E12444A0E1A5
S31581700770054C84E12554A0E1065C85E12664A0E1FF
S31581700780076C86E12774A0E1087C87E12884A0E163
S31581700790098C88E12994A0E10C9C89E12CC4A0E1A3
S315817007A00ECC8CE1F813A0E8E9FFFFAA600072E332
S315817007B0E8FFFFAAE003BDE81CC012E20500000A4B
S315817007C02E34A0E104E091E404C05CE20E3C83E146
S315817007D0043080E4F9FFFFCA031041E2BAFFFFEAF1
S315817007E01C2052E21F0000BAE0032DE900F0D1F51A
S315817007F0602052E21CF0D1F5020000BA3CF0D1F5CE
S315817008005CF0D1F57CF0D1F5F000B1E82E38A0E13D
S31581700810202052E20053B1E8043883E12448A0E1F4
S31581700820054884E12558A0E1065885E12668A0E14E
S31581700830076886E12778A0E1087887E12888A0E1B2
S31581700840098888E12998A0E10C9889E12CC8A0E1F2
S315817008500EC88CE1F813A0E8E9FFFFAA600072E385
S31581700860E8FFFFAAE003BDE81CC012E20500000A9A
S315817008702E38A0E104E091E404C05CE20E3883E195
S31581700880043080E4F9FFFFCA021041E28EFFFFEA6D
S315817008901C2052E21F0000BAE0032DE900F0D1F569
S315817008A0602052E21CF0D1F5020000BA3CF0D1F51D
S315817008B05CF0D1F57CF0D1F5F000B1E82E3CA0E189
S315817008C0202052E20053B1E8043483E1244CA0E144
S315817008D0054484E1255CA0E1065485E1266CA0E19E
S315817008E0076486E1277CA0E1087487E1288CA0E102
S315817008F0098488E1299CA0E10C9489E12CCCA0E142
S315817009000EC48CE1F813A0E8E9FFFFAA600072E3D8
S31581700910E8FFFFAAE003BDE81CC012E20500000AE9
S315817009202E3CA0E104E091E404C05CE20E3483E1E4
S31581700930043080E4F9FFFFCA011041E262FFFFEAE9
S315817009400DC0A0E1F05F80E80000A0E31EFF2FE1FB
S31581700950F05F90E80CD0A0E10100A0E1000050E3C7
S315817009600000001A0100A0E31EFF2FE1300099E517
S31581700970102F11EE022A12E20010A00364109F1547
S31581700980FC05B0E8FC05A1E8FC05B0E8FC05A1E82A
S315817009901EFF2FE150109FE5014050E01000000AC4
S315817009A048209FE5000CB1E8000CA0E8020051E1F7
S315817009B0FBFFFF3A38209FE538309FE50300B2E8A8
S315817009C0FF1001E2170051E30300001A040080E072
S315817009D0001090E5041081E0001080E5030052E17B
S315817009E0F5FFFF3A1EFF2FE10000FFFF00007081C7
S315817009F040FC738140FC7381C08474814B461A6854
S31581700A0008B584B06946936CD26C009300230193C8
S31581700A10029202AA039301330BF0FEFB04B004BC6D
S31581700A20914600BD4B4608B5074B6946C9184B467A
S31581700A301A681B68926CDB6CD218521A22F02EFEE1
S31581700A4004BC914600BDC04600F0FFFF70470000B0
S31581700A504B4670B51B68CE4605000C0000B583B059
S31581700A601B6C066E1C48019308F0AAFD002809D0FC
S31581700A7001AA102128F07CFD002824DB01991748F2
S31581700A8028F098FC80230F209B001C4008F057FEAD
S31581700A901349002C00D11349134828F08BFCAB20E5
S31581700AA008F04DFEFFF7D2FFC020C00014F024FE7F
S31581700AB02CF0E6FA2B6F002B09D0EA6E002C02D14E
S31581700AC001992000B04703B004BC914670BD4B4676
S31581700AD01B685A6CF2E7C0462CFF728133FF7281B4
S31581700AE015FF7281E9C0738158FF7281704700006A
S31581700AF0F0B5CE4600B5060082B0404808F060FD7C
S31581700B00336F0700002B09D0300010F048FC0028A5
S31581700B104AD03B4828F04EFC27F020FC4A46394D96
S31581700B2012686846546C384AA36062600522E36035
S31581700B3023612300143322602B6000F0C7FD334B91
S31581700B40A36104236361009BE361019B236223009C
S31581700B5024332B604B461B68002F2AD148462B685D
S31581700B60026804242A491C605960916CD26CD960E0
S31581700B70716F9A601A0010322A60002932D0B26F72
S31581700B80002A2FD0006823481C615861521A9961D6
S31581700B90DA6120332B602800FFF7A8FF4B460022CD
S31581700BA01B682B685A601A6002B004BC9146F0BD0E
S31581700BB001373B78202BFBD0002BCFD0164B3800DA
S31581700BC0A36227F085FC2B680D3080083900186088
S31581700BD00833180027F01EFC2B681A6892009B1840
S31581700BE02B60BBE7716E0029D5D0B26E002AD2D048
S31581700BF000680848586104201861C7E7E721738146
S31581700C0071FF728140FC7381010041540600415429
S31581700C10020041540500425409004154F0B5CE4654
S31581700C20C02700B505001E00074018D180246400D6
S31581700C30044007D03C001800FFF75AFF200004BC1F
S31581700C409146F0BDC023DB00184204D029003000E4
S31581700C50FFF7FEFEF2E73000FFF74AFFF6E7012461
S31581700C606442EBE730B50400C06ECE4600B500280D
S31581700C700CD0094925F04DFC002807DAE06EFFF7A4
S31581700C80BDFE002802D005480FF046F82CF0F8F921
S31581700C9004BC914630BDC04691FF728199FF7281C5
S31581700CA04A46036E04B5C06E984704BC914600BD32
S31581700CB030B5841D431DE47FDB7F24021A4D1C43AE
S31581700CC0C31DDB7F1B041C4303000833DB7F1B06BC
S31581700CD023430124AB4225D10400030029342833F0
S31581700CE024781B7824021C4303002A331B781B0447
S31581700CF01C4303002B331B781B06234300240B6094
S31581700D00010003002D3109782C331B7809021943B0
S31581700D1003002E332F301B781B04194303781B066F
S31581700D200B431360200030BD18286F0180B44F4685
S31581700D303A6C002080B4FA633A6C103A3A6404BC17
S31581700D40914680BC7047000080B44F46FB6B002093
S31581700D50034A083380B4136004BC914680BC7047E3
S31581700D604000708170470020704700004B460248F2
S31581700D7008B528F092FBC046B0F97281F0B5CE46BF
S31581700D8000B5A2B002AD0400802228002E492CF055
S31581700D904FF9A26BE16B2D48266C28F00BFB4B4605
S31581700DA05A68370F3F07D20708D5596C5A6CA36BAF
S31581700DB027489A1AE36B591A28F0FCFAE36A226B70
S31581700DC0616B244828F0F6FA236A626AA16A22481E
S31581700DD028F0F0FA2369A269E16900931F48636973
S31581700DE028F0E8FA2368E168A26800931C48636872
S31581700DF028F0E0FA4E21002F00DB20315A22730051
S31581700E0000D420324323B00000D420335620F6001C
S31581700E1000D420300090134828F0CCFA236C124904
S31581700E201A0600D51149104A580600D50F4A1F2057
S31581700E3003400F489B0000900E48EB5828F0BAFA91
S31581700E4022B004BC9146F0BDF8D272816E71738105
S31581700E506871738190717381B4717381D871738183
S31581700E60087273813872738194B77381861B7381AB
S31581700E70E9C073814872738130B5CE4600B504007E
S31581700E801EF0FEFA054828F095FAE36B2000043BC4
S31581700E90E363FFF773FFFFF769FFC046D53B738145
S31581700EA030B5CE4600B504001EF0EAFA054828F042
S31581700EB081FAE36B2000043BE363FFF75FFFFFF783
S31581700EC055FFC0461339738130B5CE4600B50400DF
S31581700ED01EF0D6FA054828F06DFAE36B2000083BC0
S31581700EE0E363FFF74BFFFFF741FFC04646387381D7
S31581700EF030B5CE4600B504001EF0C2FA054828F01A
S31581700F0059FAE36B2000083BE363FFF737FFFFF77E
S31581700F102DFFC046F522738130B5CE4600B50400EB
S31581700F201EF0AEFA054828F045FAE36B2000083BBF
S31581700F30E363FFF723FFFFF719FFC046E13773813C
S31581700F4030B5CE4600B504001EF09AFA054828F0F1
S31581700F5031FAE36B2000083BE363FFF70FFFFFF77E
S31581700F6005FFC0463E2B738130B5CE4600B5040071
S31581700F701EF086FA054828F01DFAE36B2000083BBF
S31581700F80E363FFF7FBFEFFF7F1FEC046432B7381E8
S31581700F907047000010B507480EF0BEFE064827F070
S31581700FA083FBFFF7E0FEFFF7F3FF002000F0E6F822
S31581700FB0002010BDCF38738150C30000011080E0CE
S31581700FC0EEFCFFEA013080E11F0013E30600000AA0
S31581700FD00120A0E110402DE90010A0E110009FE5ED
S31581700FE02AB000EB0000A0E31080BDE80100A0E309
S31581700FF01EFF2FE1800273811EFF2FE11EFF2FE1FD
S31581701000C03099E5031B81E3001A81E1001183E702
S315817010101EFF2FE110402DE9004099E5804184E063
S31581701020482094E5222AA0E14C3094E5481094E555
S31581701030233AA0E1213A83E0020053E11080BD9802
S315817010400200A0E11E10A0E3ECFFFFEB012082E21B
S31581701050F4FFFFEA103F11EE103F11EE013AC3E340
S31581701060103F01EE1EFF2FE110402DE9104F11EE5A
S31581701070014014E21000001ADEFFFFEB0400A0E1CC
S315817010801210A0E3014084E2DCFFFFEB010A54E316
S31581701090F9FFFF1A0000A0E3DDFFFFEBC03099E591
S315817010A0103F02EE0030E0E3103F03EED2FFFFEB1C
S315817010B0103F11EE013083E3103F01EE103F11EEC8
S315817010C0043083E3103F01EE1080BDE8103F11EECE
S315817010D0040013E31EFF2F0110402DE9104F11EE0E
S315817010E00540C4E3A0FCFFEB104F01EE1080BDE814
S315817010F0100F11EE2001A0E1010000E21EFF2FE129
S315817011004B4608B500F051F8FFF758F90521802054
S3158170111000F080F80521812000F07CF80121812082
S3158170112000F0BAF800F070FA04BC914600BD000078
S315817011304B46082208B504200E4927F040FA00284C
S3158170114013D12823197803290CD808002CF048F874
S315817011500F020608042004BC914600BD0220FAE7FE
S315817011600820F8E7044828F098F90C20F3E7012065
S31581701170F1E7C04619BD738122BD7381494602B4B8
S315817011800122034B5A619A61024A1A61FEE7C0468F
S31581701190A00CC201AF1400004B4608B52BF030FF8E
S315817011A004BC914600BD7047704710B500F084F954
S315817011B0FFF7FAFF002010BD10B502480EF0ACFDA6
S315817011C0002010BDA76B7381064B1B680360064BAD
S315817011D01B684360054B1B688360054B1B68C36046
S315817011E0002070470038C2010438C2010838C20134
S315817011F00C38C20110B58C00C9061C23890F1C409E
S315817012008900A24041180F200B68A04083431A437E
S315817012100A6010BD70B5242345090A001900694317
S315817012200400054BC8180A2D01D8044BC818210033
S31581701230FFF7E0FF70BDC046742AF0010008C20155
S31581701240CB069B0F9B00C01800681C238900194030
S315817012500D3BC8401840704770B51E234609C506B8
S315817012604000242418400A4B22007243ED0FD31894
S315817012700A2E01D8074BD318AD0014335B1903249A
S315817012801A68844081400020A2431143196070BD61
S31581701290742AF0010008C20170B51E234609C5067D
S315817012A04000242418400A4B22007243ED0FD31854
S315817012B00A2E01D8074BD318AD001C335B19032452
S315817012C01A68844081400020A2431143196070BD21
S315817012D0742AF0010008C20110B50378502B0DD124
S315817012E04378413B1A06120E192A07D85C010230DF
S315817012F00A22002128F05DF9201810BD0120404294
S31581701300FBE70000F0B587B005900598394A0493DC
S3158170131025F0D0FF0400051E68DB002505982A009C
S315817013200095354B21000AF0D3FD0200A84254D0B6
S3158170133003950A2809DD01230393142805DDDB183B
S3158170134003931E2801DD01330393059800232B4AED
S31581701350210024F0ECFF0126051E18D105982B007B
S31581701360274A210024F0E3FF2E0000280FD1254A59
S315817013702B000598210024F0DAFF0236021E06D171
S31581701380059821000092204B0AF0A2FD06000025E7
S3158170139000230598009321002B001C4A25F098F9AB
S315817013A0002809D1059F2B0000902100184A38002A
S315817013B025F08EF9002819D0FFF78EFF071E0ADBFC
S315817013C00499FFF727FF03993800FFF745FF31002E
S315817013D03800FFF761FF0135DAE70423059800933A
S315817013E021000C4B0AF074FD0390AEE7280007B01C
S315817013F0F0BDC0463ABD738144BD738163BD73814F
S3158170140070BD73817DBD73818CBD73819BBD73810D
S315817014104D88738153BD738130B5CE46204D00B5ED
S31581701420280017F0A7FC1F4C606000281EDA280080
S3158170143017F0A0FCA060002826DA280017F09AFC25
S31581701440E06000280DDB184917F0CBF9002818D118
S31581701450E06817F00DFA002813D10121E068FFF7D3
S315817014601BFF124B00201A681A600AE0104917F0A8
S31581701470B8F9002805D10100606817F013FA0028C1
S31581701480D5D004BC914630BD0A4917F0AAF9002817
S31581701490F7D1A06817F0ECF90028CED0F1E7C046F5
S315817014A0E9C07381D8CE7381C0BE7381CC00C2010D
S315817014B0AABE7381B3BE73810B4A0C4B1A608022AC
S315817014C0520519681142FCD00949C622094B92010D
S315817014D01A6080230A685B031A430A60064A116898
S315817014E00B4313607047C046001804902800C201F0
S315817014F06800C2015400C201D002C201074B1B6849
S31581701500D804074AC00E0130110041439806800FF6
S31581701510013003004B4318007047C0462800C20152
S3158170152000366E0170B5CE4600B595B01122002198
S3158170153005000FA82BF08CFD07A8FFF745FE041E4A
S3158170154049D1079B002B46D00C2208A926F0AAFE0A
S31581701550030244D002260A90264922000BA827F05E
S315817015601DFF0BA9280024F0E0FF00281ED0002C57
S3158170157039D121490BA826F04DFF0BA808F020F828
S31581701580002813D1230105A933430BA80B70079B40
S3158170159003936B461B7B4B700A9B1A0E4B718A7039
S315817015A01A0CCA701A0A0A7129F0B2F90134042C1C
S315817015B0D2D1124C200008F003F800280BD10A9B77
S315817015C011210F4A0FA80093079B27F0D2FE0FA90E
S315817015D0200007F09BFE15B004BC914670BD802338
S315817015E01B041843B6E7220006490BA827F0D6FEDE
S315817015F0C3E7C046DB707381E6707381F87073815F
S3158170160000717381EE707381704700004B46F0B53F
S315817016101B68CE46FA26144AB600144D00B55A6434
S31581701620280017F0A7FB1249040017F0DAF820009A
S31581701630F624FF34012117F035F9013C002C0ED1C7
S31581701640280017F097FB0B49050017F0CAF8280098
S31581701650012117F027F9200004BC9146F0BD3000B6
S3158170166027F022F8E9E7C04600010080E9C073815E
S3158170167065FC72816DFC728180204A46000604B5D4
S31581701680010010F025F94B465863002004BC914641
S3158170169000BD30B5A0240225CE4600B520002900B4
S315817016A0FFF7B8FD01212000FFF7F6FD2000290024
S315817016B00134FFF7D1FDA62CF0D1002016F076FD0E
S315817016C043425841404204BC914630BD30B5CE4606
S315817016D000B50400074807F073FF002808D0102270
S315817016E0002127F091FF6160206004BC914630BD76
S315817016F06060F9E7F870738170B5CE46274E002128
S3158170170000B585B0300007F001FE254D0021280017
S3158170171007F0FCFD234C0021200007F0F7FDFFF751
S3158170172007FD0C282FD12049300007F0EFFD0322E9
S315817017301E49142026F043FF002806D1C27D022A55
S315817017400DD002211A4827F035FE4B46D86DFFF72A
S31581701750E9FEFFF761FE05B004BC914670BD8169F3
S315817017600029F2D0C269002A09D001230390029020
S315817017700190009309330F4826F0B2FAE5E7280005
S3158170178007F0F4FDE1E70C49012802D00228DCD18B
S315817017900549200007F0BAFDD7E7C0462A5E7381F6
S315817017A0355E7381445E738124C17381505E7381AA
S315817017B0545E7381ACE87381A1F972814B4608B529
S315817017C0FFF7B0FE002004BC914600BD10B5030042
S315817017D008001100984710BD70B514001D00012ACC
S315817017E017DD10220021586827F090FE010006004F
S315817017F0094827F0DFFD611E2A1D3000FFF7E6FFDD
S31581701800040001000548631E9C4127F0D3FD20002A
S3158170181070BD01246442FAE77F2B7381A72B738194
S31581701820F0B5CE4600B51C0088B0531E06000F0079
S315817018300493231D0593531E1500002B34DD10224E
S3158170184007A9606827F062FE079B1B78002B2BD057
S315817018503A2B29D0232B27D009221849606810F09A
S3158170186073FA2300AA1E083300280ED0C168012995
S3158170187000D106311248CC070DD404008C3424680B
S31581701880A14208DC0F4827F095FD0120404208B03F
S3158170189004BC9146F0BD00240190029400913900F8
S315817018A0300009F0BBFDF2E70123049A0293044BE1
S315817018B00193054B0093059BF1E7C046A4D27381D2
S315817018C09C067481E01D73811F07000030B5CE467A
S315817018D000B50C00044807F073FE210010F088F9FA
S315817018E004BC914630BDC046C81B738130B5CE46A7
S315817018F0010000B50400204827F05CFD20000FF040
S31581701900CFFB0500012832D11C480EF005FA2368F9
S31581701910FF200004190E1A060A43190201401B0A98
S315817019200A43FF21090216480B401343154A934215
S3158170193005D120000FF07CF9002806D112480EF0EF
S31581701940EBF9280004BC914630BD20000FF0CEFA29
S315817019500E480EF0E1F920000FF08FF9002801D1C1
S315817019600B48ECE70B4800250EF0D6F9E9E70A48F3
S3158170197001250EF0D1F9E4E791547381B2547381E4
S31581701980C954738156190527DE547381F654738150
S31581701990115573812255738126557381F0B5CE4663
S315817019A000B5012A08DC0E4B1868FFF79FFF060009
S315817019B0300004BC9146F0BD92001C1D9D18002616
S315817019C0012710220021206827F0A0FDFFF78EFFE6
S315817019D0002800D03E000434AC42F2D1E8E7C0461C
S315817019E080E8738170B5CE4600B5050083B00E0070
S315817019F00E4807F0E5FD002804D1002003B004BC31
S31581701A00914670BD0A4926F039FD041EF5D1094B00
S31581701A10019009481968009627F0CCFC6B46012223
S31581701A2021002800FFF7FCFEE8E7C046FA017381C2
S31581701A300402738180E8738108027381F7B50500AA
S31581701A40074C0848084E01930B00241A0092A71080
S31581701A502A003C007443210010F0DEF9FEBDC046B9
S31581701A6038F37381CCEA7381B76DDBB600B5B3B0E9
S31581701A70C8226946002026F0B3FA27F09BFC0448F9
S31581701A800EF04AF903480EF047F9002033B000BDD5
S31581701A90623E7381A13E7381F0B5050087B01000F7
S31581701AA00C0016001F0014F0F7FB0390032D00D96C
S31581701AB069E028002BF094FB2B2B023803226349B3
S31581701AC0606826F0E8FC051E05D1300014F02EFC06
S31581701AD0280007B0F0BD03225D49606826F0DBFC03
S31581701AE000280DD13968300014F040FC002801D1EE
S31581701AF00025EDE70399574827F05CFC0125E7E758
S31581701B0004225549606826F0C6FC051E02D001255F
S31581701B106D42DDE7300014F0C6FB0028E8D00399EA
S31581701B204C4827F047FCD3E749490322606826F081
S31581701B30B2FC011E0FD10A22A06827F0E7FC0100D2
S31581701B400400300014F02EFC051ED7D13C6043484A
S31581701B5027F030FCBCE740490422606826F09BFC84
S31581701B60011ED4D1A0680A2227F0D0FC040001009E
S31581701B70300014F0C2FB0028BAD02200039938488D
S31581701B8027F018FCBAE73749606826F077FC051E9E
S31581701B902DD101001022A06827F0B8FC290005908C
S31581701BA01022E06827F0B2FC290004901022206987
S31581701BB027F0ACFC00900500049B3A6803992A488B
S31581701BC027F0F8FB059B3000049A00932B00396847
S31581701BD014F05AFC254A0400854200D0244A2548CF
S31581701BE021002D1B6B1E9D4127F0E4FB70E7224976
S31581701BF0606826F043FC051E89D101001022A06819
S31581701C0027F084FC290005901022E06827F07EFC7D
S31581701C10290004901022206927F078FC0090050035
S31581701C20049B3A680399154827F0C4FB059B3000DD
S31581701C30049A00932B00396814F03EFC0B4A040019
S31581701C40854200D00A4A21000D48CAE7E3F97281BC
S31581701C501F767381E7F97281C8A2738101FA7281E5
S31581701C601CFA72811596738139FA7281DAF97281E9
S31581701C70DDF9728169FA7281477F73817EFA728129
S31581701C80AFFA728170B50500294819F0AFF8060070
S31581701C9028000FF005FA0400012843D12B68FF2034
S31581701CA00004190E1A060A43190201401B0A0A43D7
S31581701CB0FF2109021F480B4013431F4A934205D1E6
S31581701CC028000EF0B5FF002804D11C480EF024F8C8
S31581701CD0200070BD002E06D028000EF0CEFF0028A1
S31581701CE001D11748F2E7AB7F1648062BEED12B6CE4
S31581701CF02800FF2540302D041A0E190611431A0249
S31581701D002A401B0A1143FF2212021340194301D143
S31581701D100D48DBE702680430002AFBD10FF074FFAF
S31581701D200400D5E7094801240DF0F6FFD0E7C046D7
S31581701D30A2727381A972738156190527BB727381D9
S31581701D40CB727381D9727381E9727381F772738180
S31581701D5010B5012A0EDD10220021586827F0D6FBB6
S31581701D6004002100054827F025FB00212000FFF79C
S31581701D7089FF10BD81242406F3E7C0462739738114
S31581701D804B460A0008B50100024827F013FB04BCD4
S31581701D90914600BD1E6C73814B4630B51C68CE462C
S31581701DA000B5216C2448FFF7EBFF616C2348FFF780
S31581701DB0E7FFE36C002B0BD000212148FFF7E0FF92
S31581701DC0A16C2048FFF7DCFFE16C1F48FFF7D8FF55
S31581701DD04B461E48996827F0EDFA4B461C48C0332E
S31581701DE01968FFF7CDFF4B461A48196BFFF7C8FF85
S31581701DF04B461948596CFFF7C3FF4B461748D96B49
S31581701E00FFF7BEFF4B461648196CFFF7B9FF4B4675
S31581701E1080229C33D2001968124827F0CBFA4B4640
S31581701E20DA6D002A03D0D96D0F4827F0C3FA0020E6
S31581701E3004BC914630BDC046241B7381301B7381AF
S31581701E403C1B7381461B73814F1B7381571B738137
S31581701E506D1B7381761B7381801B73818A1B738162
S31581701E60911B73819B1B7381B91B73810A4B494685
S31581701E7002B501221A701EF051FE20F073FD20F01A
S31581701E804FFF21F027F820F041FC1EF0D2FA1EF0A8
S31581701E90D1FA04BC914600BD4CFC7381F0B5CE4637
S31581701EA000B5FAB00F00150000216822079014A8BA
S31581701EB01E0000242BF0CCF8142200210FA82BF0E1
S31581701EC0C7F81022AB490BA82BF0B2F898220021E3
S31581701ED052002EA82BF0BCF8A5420FD12C00002EF3
S31581701EE00CD1A54827F066FA0022002330000092B3
S31581701EF001931FF09BFD0500040006009F4B1B7824
S31581701F00002B11D033002A000FA914A81EF084F972
S31581701F101DF0ACFA002F0AD1994827F04BFA0021AF
S31581701F200BA81EF00FF9AAE0FFF7A0FFEAE73800C9
S31581701F3023F048FA0028EFD17B68FF252D0406002F
S31581701F401A06190E11431A022A401B0A0A43FF21E7
S31581701F5009020B401A434B4615001A681B68916C2F
S31581701F60DB6C002B01D101214942864A00238020F6
S31581701F70000552197341002504920593049B1A0B2F
S31581701F8013030293059B029A03931B05160B0A187A
S31581701F90029803991E432B0012184B410421089213
S31581701FA00993012008AB32001EF0A8FFA84223D006
S31581701FB08020029940010EF07DFD08AB08903200B9
S31581701FC00421012009951EF099FFA84214D06E480C
S31581701FD027F0F0F9002329001A002EA80FF0F2FBE2
S31581701FE0061E2AD016246948644227F0E3F9200038
S31581701FF07AB004BC9146F0BD7968FF200004089DD3
S31581702000FF260A0E0B0613430A0202403602134359
S315817020100A0A324039001A4328002BF009F8029BCC
S31581702020FF273F041B021F40029B1B0A1E40029B17
S315817020303E431B0E33436B60CCE729000BA81EF021
S3158170204081F86B68280B00031A0E1F061743FF224F
S31581702050190212040A40FF2109021B0A0B403A43F6
S315817020601A434B4B3100ED1801232D1A01935219E6
S315817020700333120B0093023233001EF015FE45486E
S3158170208007F09EFA002306001B931A93984257D144
S3158170209014A907981CF02CFF0690002867D0002C95
S315817020A02FD020AB06AA1B780021237169239B1838
S315817020B01B7863716A239B181B78A3716B239B189A
S315817020C01C9A1B782173100A61736072100CA0724E
S315817020D0100EE3710B00E072A173E1731E981F9964
S315817020E0227212184B41110A22746174110C120EEC
S315817020F02375E2741A0A62751A0C1B0EA174A27585
S31581702100E3752549254807F001F924A82BF048F88D
S31581702110239C00280FD1069B139D002B25D0204927
S315817021202800984704001E4B21002800DB6B9E6FA8
S3158170213000231A00B047109B0F9A53601A6056E7B6
S3158170214026F0C6F9451C022128000EF0E1FA1B9093
S31581702150002803D1134827F02DF999E72A00310019
S315817021606D0020F04DFF1A9592E70F4CDBE7022444
S315817021706442E0E7F4F472814D1C73814CFC738187
S31581702180E51C7381FF1F0000971C7381BF1C7381CF
S31581702190FF0F0000E72173812E1D73814E1D7381A0
S315817021A0D8FA7381181D738101000080F0B5CE460F
S315817021B000B5160082B01D00012A4FDD2949586885
S315817021C026F05CF900282FD10400022E05D001007B
S315817021D01022A86827F09AF90400234B1B78002BEC
S315817021E001D1FFF743FE1DF041F901A9684620F040
S315817021F0DBF905000120002D12D029001B4827F03C
S31581702200D9F8019B2100009A2800FFF747FE41000B
S3158170221004004908164827F0CDF82000441EA041D5
S3158170222002B004BC9146F0BD10220021686800247A
S3158170223027F06CF90700022E05D021001022A868BC
S3158170224027F064F9040039000A4827F0B3F80A4B7D
S3158170225021000A4A38001B681268D6E7012040427D
S31581702260DEE7C046D01B73814CFC7381D81B7381AA
S31581702270FF1B7381231C738148FC738144FC7381BA
S31581702280F0B5CE4600B588B005000F001400002168
S31581702290202268462AF0DCFE2449280026F0EEF8D2
S315817022A000283CD00A220021380027F082F90100EB
S315817022B0280010F037FC061E2DD03A21380026F002
S315817022C0FBF80021884204D00130102227F01EF9D4
S315817022D0010030001FF0E8FA154B1860002C1AD0F7
S315817022E01249280026F0CAF82300124A002800D025
S315817022F0114A2021684627F03CF85C246B462F21D1
S31581702300180026F0D9F800280CD16A4601001FF012
S3158170231003FB0A4B186008B004BC9146F0BD1FF0F0
S3158170232055FBD9E7431C0470E9E7C0463543738191
S3158170233044FC7381F53373812A51738148FC7381AF
S31581702340F0B589B0224C551E1F1D2A0005930123B5
S3158170235002930E0000933B000194049009F05EF89D
S31581702360002D0CD11B4B1B68236607AA06A9206E0C
S31581702370FEF79EFC00280AD0012009B0F0BD059BAE
S3158170238010220021586827F0C1F82066EDE7079B77
S31581702390069A216E10489A1A21F080F93A0029001E
S315817023A0300008F081FF0028E6D109F02BF8230070
S315817023B005225E3331001A7001230293E223DB001A
S315817023C0019400932A003B00049809F027F8D4E71A
S315817023D09C06748180E873812C077481F7B50FF040
S315817023E0E9FA060015480DF097FC3468B44201D1BC
S315817023F00020FEBD27002100443F01203A683C3908
S315817024004923024200D11B3B4F20950700D42138C6
S31581702410002500900A4826F0CDFF0A4B5B59BB42D6
S3158170242004D1094B0948595926F0C4FF04350C2D3E
S31581702430F3D10A200DF046FC2468D7E7C92273814F
S31581702440E5227381F462748184E87381AD0373814B
S31581702450F7B501273E0000920193009B9E4206DBF1
S31581702460002F02D00A200DF02DFC0020FEBD019AAE
S31581702470B300D558012E02DD20200DF023FC0F49C3
S31581702480280026F0B2F8041E13D00023280023708A
S31581702490A51C0DF041FC5C2308492370280026F0A9
S315817024A0A4F8041EF1D1270028000DF035FC013601
S315817024B0D3E728000DF030FCF9E7C046012373811C
S315817024C0F8B50500002602272B8E9E4201DBA8698E
S315817024D0F8BD2B6AEC1828237343E418A3683B4232
S315817024E00FD0E06800280CD06269002A09D0636831
S315817024F0082B08D100212AF0ABFD6169E0682AF0CA
S3158170250047FE0136E0E72369E9182AF091FDF4E781
S3158170251010B501000268064B06489A4204D10B8AAF
S315817025200120022B03D0044826F044FF002010BD01
S315817025307F454C46D7CB7381FBCB7381F0B5170042
S3158170254087B03F481E0007F03BF87B1E02900093D0
S31581702550351D002B48DD746823782D2B42D1637825
S31581702560702B01D0732B3DD1BB1E3500009308357E
S31581702570002B3ADD05AA1021286826F0F9FF16305E
S3158170258033D0009B0435013B009305980126FFF7F4
S31581702590BFFF002823D0059E002C44D06378702B12
S315817025A041D1F3690027F3180393039B7C01E418E7
S315817025B0B38D9F421DDBB3690593029B002B37D187
S315817025C00599204826F0F6FE2900059B00989847C4
S315817025D0060001001C48731E9E4126F0EBFE3000FA
S315817025E007B0F0BD0024C5E70024184B1B6805931E
S315817025F0CBE7E36822690193002A04D06368019866
S31581702600F1182AF015FD20696269904205D0019B07
S31581702610121A002118182AF01BFD216901370198B9
S315817026202AF0B6FDC1E73000FFF74AFF0590C4E78F
S315817026300749029825F022FF061EC1D1CFE7C04611
S31581702640FA0173818E1D7381B61D738180E87381E2
S31581702650DD1D7381F0B51600A3B01D00012A24DC3F
S31581702660784B1C6878480DF057FB784806F0A8FFC0
S31581702670002832D1764826F09DFE2000FFF748FF6C
S31581702680002800D1D9E02000FFF71AFF040021004D
S31581702690704826F08FFE2AF043FD0020A0476E48D1
S315817026A00DF03AFB012023B0F0BD1022002158684D
S315817026B026F02CFF0400022ED4D16849686825F073
S315817026C0DDFE0028CED1033028F080FB0028E9DDBD
S315817026D02100634826F06EFEC4E71022002126F0A1
S315817026E015FF05005F4806F06BFF061E19D025F0B1
S315817026F0EFFE0200FF2800D2FF22310028002AF067
S3158170270097FC300025F0E4FE0100FF2800D2FF21FE
S3158170271028002AF03DFD2A002900534826F04AFEFA
S31581702720ABE7524806F04CFF061E79D0010002A82D
S3158170273025F070FE300025F0CBFE06004C4806F081
S315817027403FFF02AB0200F018002A6DD0494926F08E
S3158170275025FE3618484806F033FF021E25D002AB97
S315817027604649F01826F01AFE454F3618380006F09D
S3158170277027FF02AAB3180193002859D0380006F0B2
S315817027801FFF21F007F8FF21020E03060904134388
S3158170279002020A403B491343020AFF2000020240AB
S315817027A001981A4326F0FAFD3618374806F008FF65
S315817027B0021E05D002AB3549F01826F0EFFD3618AA
S315817027C0334806F0FDFE021E05D002AB3149F01882
S315817027D026F0E4FD3618304806F0F2FE021E05D06A
S315817027E002AB2E49F01826F0D9FD36182C4806F022
S315817027F0E7FE071E07D002AB3900F01825F00AFEF6
S31581702800380025F065FE02A825F062FE0200FF28D9
S3158170281000D2FF2202A928002AF00AFC02A871E7D9
S31581702820204826F0C7FD89E71F4926F0B7FD90E756
S315817028301E49019826F0B2FDB6E71D480DF06CFA77
S3158170284025E7C04680E87381F220738120217381E8
S3158170285029217381372273815B227381B5207381BC
S31581702860BA207381E7217381F0217381485E738108
S315817028707A217381832173819A217381A1217381D5
S31581702880A6217381AE217381B5217381BE21738136
S31581702890C4217381CE217381D4217381DD217381AA
S315817028A0E4217381542173818C217381486473818E
S315817028B01122738110B50020012A04DD01000A22DC
S315817028C0586826F023FE02235B42181A10BD13B591
S315817028D00224009419F04EFA16BD13B502240094A1
S315817028E019F06CFA16BD13B50224009419F024FB05
S315817028F016BD13B50224009419F060FA16BD13B58E
S315817029000224009419F018FB16BD13B501240094A6
S3158170291019F030FA16BD13B50124009419F04EFAE8
S3158170292016BD13B50124009419F006FB16BD00007F
S31581702930F0B51D00A9B0002305920793042A05DC22
S315817029400FF04AFA0400200029B0F0BD01270AABC6
S31581702950009707AAA9683C00686810F0DBFA061E22
S31581702960F1DB07980AA9436804931BF0C7FE041E1E
S3158170297007D03300049A6968174826F01BFD012435
S31581702980E1E701001022E86826F0C0FD059B07008B
S315817029902000052B04D010222100686926F0B6FD2F
S315817029A008AB009002930023019300220023390023
S315817029B028691CF0B3F9002807DA0096049B6A68C7
S315817029C02969064826F0F6FCD9E7089A099B0448D6
S315817029D026F0F0FCB7E7C0463A2573816625738188
S315817029E091257381F0B51D00A3B0012A06DC002400
S315817029F0104826F0DFFC200023B0F0BD012404AB23
S31581702A00009403AAA968686810F084FA061EF2DB3E
S31581702A10039804A947681BF071FE002806D033001D
S31581702A203A006968044826F0C5FCE4E71BF0AEFEFF
S31581702A300400E0E7E42473810F257381F0B5CE46F7
S31581702A400568040000B5002D06D1274826F0B2FC32
S31581702A50280004BC9146F0BD280022F0B3FC060024
S31581702A600120002EF5DA300022F09AFE01001F480F
S31581702A7026F0A0FC0A3631D16B69FF2000041A0E4C
S31581702A80190611431A0202401B0A1143FF221202D0
S31581702A90134019430F2903D81022154826F08AFC52
S31581702AA0AA69FF263604FF200002110E13060B4316
S31581702AB011023140120A0B4302401A43112A0DD971
S31581702AC06B691A0E190611431A0216401B0A0340C6
S31581702AD0314319431122074826F06CFC064826F0CB
S31581702AE069FC00202060B4E74C4C7381774C73810C
S31581702AF0954C7381AD4C73815167738110B5002983
S31581702B001FD04318013B1B78002B01D00A2B07D1AC
S31581702B100D4A48240378002B0FD0D35CA34309D187
S31581702B2000210EE001290CD04378002BF8D00130BA
S31581702B300139EFE70029FADCF2E70029F2DC4B4232
S31581702B405941080010BDC0462EF77281F0B5CE4648
S31581702B5000B5050082B00F1E0DD0FFF7CFFF041EA2
S31581702B6020D0344E002430000DF0D6F8BC4206DBFE
S31581702B7030000DF0D1F802B004BC9146F0BD002C46
S31581702B8002DD2D480DF0C8F8280001340DF0C4F827
S31581702B90280025F09DFC2418280025F099FC013029
S31581702BA02D18E3E7032637422FD1402F05DD3A00F2
S31581702BB02900224826F0FEFBDDE7214826F0FAFB44
S31581702BC0FB171E40F619FF27B6103F02731E01933D
S31581702BD0B44203DB1B4826F0EDFBCCE7A300FF2054
S31581702BE0EB5800041A0E190611431A0202401B0A89
S31581702BF011433B401943019B134A9C4200DB134AA4
S31581702C001348013426F0D6FBE2E7402FCFDC11481A
S31581702C1026F0D0FBA74201DC0F48DCE77B1E295DDD
S31581702C20094A9C4200DB094A0C48013426F0C2FBF2
S31581702C30F0E7C046CD6B7381CA6B7381CF6B73813D
S31581702C40378973814C89738148647381E9C07381D3
S31581702C50DF6B7381E86B738172A27381EA6B7381A7
S31581702C60054B4A4604B501001860044806F07EFBA0
S31581702C7004BC914600BDC04650007481D370738187
S31581702C80F0B5CE4600B5170096B01D00012A02DC5C
S31581702C90012464422FE00222C549586825F0FBFB66
S31581702CA0041E6CD1BE1E002E01D100F0C5FDC14936
S31581702CB0A86825F0E3FB002822D1FE1E0C3501277A
S31581702CC0002E1FD14B463E00DB6D0A930A9B002B6B
S31581702CD001D101240FE00AA8FFF7B0FE0028F8D0D1
S31581702CE00A99002E04D13100B34806F095FC010093
S31581702CF0B24826F05FFB200016B004BC9146F0BD49
S31581702D000835270010220021286826F0FFFB0290E3
S31581702D100A900AA8FFF792FE0028DAD0002F1FD0FA
S31581702D200A9A4B46DA65012EE5D010220021686831
S31581702D30FF2626F0EBFB01000A98360443681D0EC8
S31581702D401A062A431D0235401B0A2A43FF252D0286
S31581702D502B401A43914207D2994826F02BFBCAE73A
S31581702D600298FFF77DFFDEE70A00010024F0ECF898
S31581702D700028C0D022F014FD01009248B9E7924E26
S31581702D803368002B03D191480CF0C6FFA1E702226C
S31581702D908F49686825F07FFB0290002850D1032FF8
S31581702DA000DC75E701001022A868012426F0AEFBCD
S31581702DB030603000FFF742FE00289CD010220299C5
S31581702DC0E86826F0A3FB0490042F1CD13368FF209A
S31581702DD0000459680A0E0B0613430A020240090A57
S31581702DE01343FF22120211400B431A000499306873
S31581702DF024F0AAF8041E20D022F0D2FC010071487A
S31581702E0026F0D8FA65E710220299286926F07EFBAA
S31581702E1032680100030055682A0E28061043FF2286
S31581702E202F0212043A4010432A0AFF252D022A40A6
S31581702E3002439142D9D267488FE7049B33605AE740
S31581702E4002226549686825F026FB00281CD1032F6C
S31581702E5000DC1DE7A9683068EC6823F05AFB00280E
S31581702E6004DA22F09DFC01005C48C9E7010022006A
S31581702E70306824F038F8002801DB00243BE722F023
S31581702E808FFC01005648BBE768680378732B00D0C6
S31581702E90EBE0032F00DCFBE6EB68A96830680793EB
S31581702EA023F037FB02900028DBDB042F16D1002339
S31581702EB00893089B00244448079A00930299494BCA
S31581702EC0006823F086FFA04200DB14E722F068FCDD
S31581702ED00100454826F06EFA01340CE708AB079A73
S31581702EE00299306823F05CFA089A80230100DB002E
S31581702EF09A4202DD11003D4882E73A4E002802D09F
S31581702F0030002AF095F82B0000241033089406932C
S31581702F103B1F04932B690A931A783C2A3ED1FF276B
S31581702F2001333F020A930A9D29783E29C1D0049BB9
S31581702F30A34201DC2E4863E7002905D1069A013444
S31581702F40A3009B580A93EEE700220AA9280026F06F
S31581702F50DDFA2B783F2B16D0020E0306FF21134321
S31581702F60090402020A40000A13433840184330604C
S31581702F70089B0436043308930A9B5B1B002B08DC81
S31581702F8029001C483CE70A9B01330A93F0E7013319
S31581702F900A930A9B1A78202AF9D0C4E75B2A4FD103
S31581702FA0442501330A930A9B1B785D2B26D133E026
S31581702FB0C139738194267381D37073819726738196
S31581702FC0B9267381E82673815000748104277381D1
S31581702FD07427738177277381AA277381AD2773814C
S31581702FE0D327738150FC738153287381F127738141
S31581702FF0382873811728738101300A900A9803786B
S31581703000202BF9D0002B0DD1069A0134A3009B5841
S315817030100A93049BA342C6DC0A9B19785D2900D169
S3158170302047E787E7B64AD35C2B42F5D010220AA9C7
S3158170303026F06CFA089B3070013601330893E8E705
S315817030400A98013425F044FA0A99471C3000F6191A
S3158170305025F0E0F9089BDF19A300EB1808971B6927
S315817030600A93049BA342EBDC23E7672B00D0C1E074
S3158170307000230893042F00DC0AE6AB680493052FBE
S3158170308003D11B78732B00D002E6EB68296930680F
S3158170309002936B69069323F03CFA041E01DA2000D1
S315817030A0DFE6049B1B786E2B03D0732B47D1052FDC
S315817030B045D12100306823F0D0FA21000A900700AB
S315817030C00AAA306822F08CFA049B04001B786E2B56
S315817030D031D110220021686926F018FA06900125EF
S315817030E06D420A9ABA421CDD7B1C9B1A5A42534125
S315817030F0ED18049B1B786E2B0CD1069B9D4209D1D2
S3158170310021000022306823F068F80100029806F0E9
S31581703110FDF8B2E621000AAA306822F061FA041E2F
S31581703120DFDA049B77481B78732B4BD1691C029825
S3158170313006F00EF9A1E601235B420693CFE72100E3
S31581703140306808AB069A23F02BF9089D06006E4904
S31581703150002DDBD0002847D0002D45DD049B1B78E0
S31581703160762B32D12900FFF7C9FC3100041ECDD1EF
S31581703170042D16D13368FF200004190E1A060A43EE
S31581703180190201401B0A0A43FF2109020AA80B4052
S315817031905E491A4326F002F90AA9029806F0B6F832
S315817031A0A9E5AB070DD1142D0BDC070078000AABAE
S315817031B0F259C0185649043726F0F0F8BD42F5DC4D
S315817031C0EAE7544826F0F6F883E5612B06D1524931
S315817031D002000AA826F0E2F80AA997E7732B00D0B5
S315817031E056E52A004949F4E7280022F0D9FA010008
S315817031F04A4805E6702B26D06C2B00D0F8E06B3BE5
S315817032000493022F21D0AB68069300230293032F78
S3158170321001D0EB6802930699306823F07AF9041E1F
S3158170322000DA3CE7029B3068002B24D021000AAB80
S31581703230029A23F0B5F80A9C0500002C09D1029AEE
S315817032400699374889E52023DAE7364B06930023BA
S31581703250E0E700280DD0002C0BDD0299324826F06C
S31581703260A9F80A992800FFF771FC304826F0A2F870
S3158170327003E62000B9E7029D20272D4E210008AA7A
S31581703280306822F02EF901000138082800D9A9E0AA
S3158170329029F0E6FE090024005C00A100A800A800C0
S315817032A0A800A8001FFD00222100306822F095FF3A
S315817032B0049B0200AB420CDB002800D11D4A1378B7
S315817032C0002B00D11C4A1D497B1B1D48C91826F04D
S315817032D071F801351F2D0EDD1A4873E7049B013D88
S315817032E0AB4208DB15497B1B1748C91826F062F873
S315817032F0002D00D1C1E5089C6B1CBED1BDE5C046D1
S315817033002EF772816D287381E9C0738184287381E8
S31581703310D46173818B287381A5287381AA2873815F
S3158170332010CA7381FDDD7381F7287381516773814B
S31581703330500074817B26738192267381FFDD738140
S31581703340C4287381CC287381E828738121000C226B
S31581703350306822F07FF883680400FF2000041A0E1B
S31581703360190611431A0202401B0A1143FF221202E7
S3158170337030681340FF261943360422F05CFE61687B
S3158170338002000B06080E0343080230400343080A05
S31581703390FF210902084018430A9000D525E7049B4E
S315817033A008D1AB42A7DBD4497B1BD448C91826F018
S315817033B001F8A0E7AB429EDBCF497B1BD048C91889
S315817033C025F0F8FF20000A990C30FFF7BFFBCD4836
S315817033D025F0F0FF8FE7C8497B1BCB48C91825F0CC
S315817033E0E9FF88E7049BAB4200DA72E4C74807E5D8
S315817033F00222C74925F04FF800281ED1A968306886
S3158170340023F087F8011E00DA2BE53068032F0ADD79
S31581703410EA6823F0F3FC041E00DB2EE522F0C0F986
S315817034200100BC4865E423F06CFD041E00DB24E5D5
S3158170343022F0B6F90100B8485BE468680378682BB6
S3158170344000D09EE03268FF252D04FF242402B34804
S315817034505369190E1F060F43190229401B0A0F4320
S3158170346023401F4313681A0E190611431A022A4004
S315817034701B0A11432340194325F09CFF3368A848E2
S315817034805B681A0E190611431A022A401B0A2340D9
S31581703490114319430A0025F08DFF3368A1489B6853
S315817034A01A0E190611431A022A401B0A1143234028
S315817034B0194325F07FFF33689B48DB681A0E19061E
S315817034C011431A022A401B0A11432340194325F0DE
S315817034D071FF336895481B691A0E190611431A02D2
S315817034E02A401B0A11432340194325F063FF390093
S315817034F08F4825F05FFF33688E489B691A0E1906CF
S3158170350011431A022A401B0A11432340194325F09D
S3158170351051FF012F2DD933688748DB691A0E190639
S3158170352011431A022A401B0A11432340194325F07D
S3158170353041FF022F1DD0336880481B6A1A0E190607
S3158170354011431A022A401B0A11432340194325F05D
S3158170355031FF102F0DD9336879485B6A1A0E1906B7
S3158170356011431A0215401B0A29431C40214325F039
S3158170357021FF306822F0BBFD0100724825F01AFFE9
S3158170358073E60322704924F086FF041E15D101006B
S315817035901022A868FF2525F0B9FF010E03060B439B
S315817035A02D04010232682940000A0B43FF2109026A
S315817035B008401843D061FFF79EFB02226349686811
S315817035C024F069FF0290002817D110220100A868A3
S315817035D026F01AF81022049005910299E86826F06F
S315817035E013F8049A059B00900191306808F0E8FE03
S315817035F0041E00DD41E4FFF77EFB022254496868B0
S3158170360024F049FF041E61D1AB681B78702B27D1DA
S315817036103068270022F06BFD05004E4825F0CAFE02
S315817036204D4825F0C7FEAF4200DB26E40AAB08AAF7
S315817036303900306822F011FD041E05DA22F0B0F8E7
S3158170364001004648FFF755FB0A9B3900099A0137F5
S31581703650434801930B9B0093089B25F0ABFEE2E7F1
S31581703660612B1CD110220100E86825F0CDFF102254
S31581703670029003912100286925F0C6FF029A039B67
S3158170368000900191306823F0D2FA041E01DBFFF7B6
S31581703690F4FB22F085F801003248FFF72AFB642B90
S315817036A001D0FFF7F5FA01001022E86825F02EFFA8
S315817036B00100306823F01EFB041E01DBFFF7DDFB82
S315817036C022F06EF801002848FFF713FB0322274981
S315817036D0686824F0E0FE00284CD14B463068196842
S315817036E0FEF76CF8002801D1FFF7C7FB22F058F876
S315817036F001001F48FFF784FBFFDD7381EE2873811C
S31581703700F5287381F2287381FD2873810A29738163
S315817037101B9C73811E297381392973815529738104
S31581703720642973817B29738191297381A829738116
S31581703730BF297381CD297381E4297381FB297381B3
S31581703740122A7381292A7381402A73814F19738151
S31581703750442A7381472A7381622A7381942A738179
S31581703760B32A7381CD2A7381EC2A73810B2B738172
S315817037700F2B738103223349686824F08CFE041EF3
S315817037801ED1022F19D0042F01D0FFF781FA0100C3
S315817037901022A86825F0BAFE102207002100E86879
S315817037A025F0B4FE0500306808F0D4FC2A00390093
S315817037B0306808F019FCFFF79EFA05000700F2E7FA
S315817037C021490222686824F066FE011E1ED1032FEC
S315817037D001D0FFF75DFA3368002B01D1FFF779FAD3
S315817037E01022A86825F092FE0A900AA8FFF726F99A
S315817037F0002801D1FFF76DFA0A99306808F09EFFAB
S31581703800041E01D0FFF765FAFFF775FA02220F4998
S31581703810686824F040FE041E01D0FFF739FA010072
S31581703820022F04D01022A86825F070FE010030683E
S3158170383008F054FEFFF75FFA054B1B680A93FFF792
S3158170384045FAC0460E2F738187737381068973819A
S315817038505000748113B50024009418F08BFA16BD4C
S31581703860F7B506000F0015001C005868022A0FDD97
S315817038709968094A042D00DD1A69FEF701FD002356
S315817038802A00009339003000230018F097FAFEBDA4
S3158170389001490A00F1E7C046E9C0738113B5002476
S315817038A0009418F07FFB16BD13B50024009418F0B0
S315817038B043FB16BD10B518F0EFFB10BDF0B5CE46C3
S315817038C000B596B00E0005001C0001920022019988
S315817038D015F0CBF8002829DB2368DA0701D4022892
S315817038E020D09A0712D5002E10D004273B4205D0DE
S315817038F00A200CF0E7F92368BB43236031000D4839
S3158170390025F058FD226802239A432260502302AA29
S315817039100199280015F0BCF8002807D1064802A93C
S3158170392025F048FD16B004BC9146F0BD01000348F0
S31581703930F6E7C04699517381126B738192037381D5
S31581703940F0B5CE4600B586B016001D000190012AED
S3158170395002DC0124644226E05C68022A2DD0774914
S31581703960986824F08BFD002822D0083500262F68B0
S3158170397002227349200024F08EFD00286CD10490B8
S31581703980002F04D03B785A1E93415B421F4003A996
S31581703990142012F0CBF8039A002A14D101000198F1
S315817039A00EF0B6FC0400200006B004BC9146F0BD52
S315817039B00C35032E04D00126D9E700263700D7E7C8
S315817039C001260700D4E7049B0221002E00D0032133
S315817039D00B43100005A9049315F03BF8059B050070
S315817039E0002B03D103A812F0B8F8D4E7002813D0BE
S315817039F024F06EFD0400002F2CD0020029003800BF
S31581703A0024F049FD002808D0049A02231A42E9D18C
S31581703A10DB1813430493E5E704003819002F19D096
S31581703A2003780024A34211D021000A2225F06EFD6D
S31581703A3004AB020029000398FFF740FFE4E72200F8
S31581703A40013404AB29000398FFF738FF059B9C422C
S31581703A50F5DBD9E70024F9E7002F00D179E72378E0
S31581703A60692B18D011D80225632B00D071E70022FB
S31581703A7005AB1100380014F02FFE041E0FD03900EB
S31581703A80304825F097FC210089E7732B05D00325F3
S31581703A90742BECD05DE70025E9E70125E7E72A4934
S31581703AA0059814F09EFE0300102210330190934303
S31581703AB004D00599254825F07DFC4AE70598244E62
S31581703AC0002D24D114F0D4FE059814F0B3FF0400B0
S31581703AD03900059A1F4825F06DFC21001E48B442B5
S31581703AE029D81E4825F066FC002D08D0059814F05B
S31581703AF0A1FF0100B0421BD9194825F05BFC019BDF
S31581703B00103300D14FE7059814F0A2FE4BE7022DD2
S31581703B1009D00124032D06D114F08CFF0400B04224
S31581703B2001D863425C412100059814F0BBFECFE752
S31581703B308442E4D00B4825F03DFCE0E779A273819D
S31581703B4049917381CE2B7381E42B7381ED2B7381B4
S31581703B5000F0FFFF0D2C73812E2C7381C92973811F
S31581703B60402C73816C2C738110B50C0003782A2BD1
S31581703B7010D101301022002125F0C8FC022C05D00D
S31581703B80042C05D0012C11D1007810BD0088FCE77A
S31581703B900068FAE71022002125F0B8FC032CF4D8CE
S31581703BA00123E4005B42A3409843EEE70020ECE7F3
S31581703BB010B503782A2B05D101301022002125F00A
S31581703BC0A5FC10BD242BFCD143787B2B0ED1023002
S31581703BD0020013787D2B04D10023137005F0F0FC5D
S31581703BE0EFE70132002BF4D11800EAE70020E8E70D
S31581703BF0F0B5002587B006001F000391049224F06A
S31581703C0067FC0190394B5A190592682D04D13100A0
S31581703C10374825F0CFFB57E0EB583000019A1900F1
S31581703C20029324F038FC041E5ED1029824F050FC75
S31581703C30019B834258D1059B5E68002F27D10398DB
S31581703C40FFF7B6FF05000498FFF7B2FF0100280061
S31581703C5024F014FC0300052E07D8300029F0C0FA31
S31581703C6003080C0E12155C425C41200007B0F0BD52
S31581703C701C00631E9C41F8E7DC0FF6E7DC17E41A3B
S31581703C80E40FF2E75C1E1C43FAE7DC43F8E7390080
S31581703C900398FFF769FF390005000498FFF764FF01
S31581703CA00300052EE1D8300029F09AFA03070B102C
S31581703CB01419ED1A6C426C41D7E7EC1A651EAC414A
S31581703CC0D3E701249D42D0DB0024CEE701249D42B7
S31581703CD0CBDCF9E7EC0FDA17AB425441C5E7EC1749
S31581703CE0DA0F9D425441C0E708358BE724DD728136
S31581703CF0C3F9728110B51C00042A1BD11100186892
S31581703D000EF09EFA0300023006280ED829F068FA62
S31581703D10040D0D05050D05000023E2686168A06834
S31581703D20FFF766FF4342584110BD04480BF0F4FF1C
S31581703D300020F7E701204042F6E7C046B02E738136
S31581703D40034B00221A60034B1A68034B1A60704743
S31581703D50940074816C00748184007481064B1A6836
S31581703D60064B1A60064B1A68064B1A60064B1A6820
S31581703D70064B1A607047C0467C00748180007481DE
S31581703D809400748198007481840074818800748130
S31581703D90064B1A68064B1A60064B1A68064B1A60F0
S31581703DA0064B1A68064B1A607047C046800074814C
S31581703DB07C00748198007481940074818800748108
S31581703DC0840074814B4608B50BF05AFF002804D0E5
S31581703DD00BF030FF04BC914600BD01204042F9E7EB
S31581703DE0F0B5CE46214C0600002500B5A54401A844
S31581703DF0029169460EF068FC0400A8422DD1802795
S31581703E00FF006A46390004A80EF034FD021E1DDCDF
S31581703E1068460EF01BFE164900200EF03DFE21000D
S31581703E201F231F313000994329F0B2F922002100F6
S31581703E30104825F0BFFA21000F4805F097FA300037
S31581703E408223DB009D4404BC9146F0BDA81904A968
S31581703E50A418AD1829F0ECF8D3E700982C000EF071
S31581703E6053FE0100054825F0A5FAD1E7F0FBFFFF67
S31581703E70C53D70819C5C7381C45C7381126B7381E7
S31581703E80044B1B68002B04D1034A1368591C1870A4
S31581703E90116070479400748184007481074B00228D
S31581703EA001331978002905D110063F23800F8018B8
S31581703EB01840704701335218F3E7C0465400748135
S31581703EC00C4B30B5CE4600B51C68002C08DC00233F
S31581703ED0094A5C1CD05C002808D104BC914630BD6F
S31581703EE0064B013C18780BF0EDFEEEE70BF0EAFE1F
S31581703EF02300EDE7740074815400748171007481BC
S31581703F00F0B501264D4CCE467642002300B5A544C8
S31581703F1007900493039300254AAF7B1905930BF0A1
S31581703F2089FE030604001B0E0693454B1B68002B06
S31581703F3002D006980BF0C6FEFF231C40032C6ED070
S31581703F405ADC002C6BD06B461B7E7B554B469A6E2A
S31581703F503C4B52689A426AD17B1C81225B1901352E
S31581703F6092009542D8D100221A704AAA9B1A4CE0C7
S31581703F700138082818D829F033F905050517171758
S31581703F8028282800099A0AA9079B9C18089A200054
S31581703F9029F04EF8A64200D92600089B013B1C19D0
S31581703FA0039BA34200D20394254B1B68002BB2D18D
S31581703FB0049B642101331800049329F001F80029C8
S31581703FC0A9D12E200BF07EFEA5E71F4824F06CFB4D
S31581703FD0039B3100039A1D485C1CA41B230000942B
S31581703FE025F0E8F92100300029F0D2F8210018482F
S31581703FF005F0BCF9099814E00A2C01D00D2CA2D1D8
S31581704000059A002313704AABD31A002B07DB0AABD0
S3158170401009AA08A938000EF0AFF90028A8DA01209C
S315817040204042CC239B009D4404BC9146F0BD0BF06D
S31581704030E5FE002800D18FE7F1E7C046D0FCFFFF8F
S3158170404020DE738135FC708110270000375C7381A7
S31581704050C45C7381F0B5CE4600B51D0016001E484E
S3158170406005F0AEFA1D4B00282CD00278312A29D161
S31581704070303A1A600024022E05D121001022686818
S3158170408025F097FA04001648FA2625F093F9200050
S31581704090B600FFF735FF642405000BF0F1FD0028AB
S315817040A001D00BF0C7FD3000013C24F0FDFA002CE5
S315817040B0F3D16B1C08D10B4825F07CF9012004BC27
S315817040C09146F0BD0022D4E72900074825F072F9A0
S315817040D0064B20001D60F2E7072F738120DE738106
S315817040E0122F7381362F7381542F738180E8738178
S315817040F0F0B5CE4600B586B014001D00B94805F0FE
S315817041005FFA00285DD01022002125F0FFF9019019
S315817041104B469B6803930293012C27DD1022002165
S31581704120686825F0F3F9039B01900293032C1DD1E6
S315817041300A220021A86825F0E9F90290002844D066
S31581704140039B834212D00100A74825F033F9A74813
S3158170415024F0AAFA029A4B469A6015F0D4FCA348C9
S3158170416024F0A2FA0BF066FD0D28FBD1A0492868D0
S3158170417024F084F9041E2BD10199029A9D4825F069
S3158170418019F902210198FFF72BFE039B029A93423C
S3158170419012D01900984825F00DF9944824F084FAC4
S315817041A0039A4B469A6015F0AEFC904824F07CFADF
S315817041B00BF040FD1B28FBD1200006B004BC914654
S315817041C0F0BD81231B060193A2E7039B0293CDE782
S315817041D08A49286824F052F9029A041E019904D1F9
S315817041E0874825F0E7F80121CCE78648002425F039
S315817041F0E1F8854B019A1A60844B854A1A60854B22
S31581704200854A1A600D22854B1A701632844B1C6052
S31581704210844B1C70844B1A70844B1C60FFF790FD25
S31581704220FFF79CFD0094013C814B824A1A600BF02A
S3158170423001FD012807D00328F9D10025A7E1009B4C
S31581704240009C0093F0E7E0250BF0F4FC0600284211
S315817042504DD00BF0EFFC284249D0FF231840020065
S315817042600700203A05921A400092A2425AD1FFF76E
S315817042708FFD0BF0DFFCE0220490104200D18AE0C2
S31581704280FF252E402840F719203E2E40C719023E41
S31581704290B31C00D09FE00BF0CDFCE0230600009CA0
S315817042A0184224D00BF0C6FCE023009C18421ED025
S315817042B02E402840BF19203E3F1820382E405F225D
S315817042C01300734306002E409E190BF0B3FCE02356
S315817042D00206120E054018425DD03B063F219B0FA8
S315817042E0009CDB197F190B4020339A4273D0FFF7FC
S315817042F04FFD514D012300262B7022336B70009B2D
S315817043002E712033AB704E23EB70FFF7C7FD434B95
S3158170431020302871AE711B786B71FFF7D1FD009BD0
S3158170432000948DE7FFF71AFDA3E70BF083FC03007A
S31581704330E02100061A00000E22400B422BD0049B0E
S31581704340BF18013E442B39D1384B1A68002A2BD0BD
S31581704350304B1A6860230340402B1ED19843904797
S31581704360324B00221A60012EDFDC0BF063FCE023F6
S31581704370184210D03D060006AD0F000EEF193F258D
S315817043802F40009C2037B842B1D10BF053FC000608
S31581704390000E0D2852D0009CA9E77F2303403F2B46
S315817043A0DDD101331843DAE71F4A1278824201D18F
S315817043B00122D7E7174B1B689847D4E7049B532B89
S315817043C0D1D11B4B1B491A681431551C10701D6055
S315817043D08D42C8D3C6E7049BFF241B061B0E04932C
S315817043E0C1E7C046722F73817B2F738150C30000E2
S315817043F0AD2F7381B32F73819B307381F22F73814C
S31581704400F82F7381373073816C0074819000748159
S31581704410413D70818C007481813E708170007481A0
S315817044207400748171007481780074817C007481E8
S31581704430B00074819C007481540074810599049BC9
S31581704440694E20310906090E532B00D083E0674AE5
S315817044500023307066481360664A13702322664B58
S315817044601A700200654B13321C68944202D10200A5
S3158170447012321A601B6803241B1A002B4BDD604DA8
S315817044807E2201342A71012B45D05D3A01346A71DD
S31581704490022B40D08278554C203A1206120E226039
S315817044A02022AA710624032B35D0C2786020104051
S315817044B0402849D182434F48072402704020504A90
S315817044C0D071042B27D04A4D474C287920382070DB
S315817044D02D2010720824052B1DD06C7946480470E6
S315817044E0232050720924062B15D02B3001349072FB
S315817044F0072B10D02734D472263C082B0BD010731F
S315817045000134092B07D0222304345373023B9373EE
S315817045105E33D37313743A4D0123671C00262B7057
S3158170452023002033A9706B705923EB702C19EE55CB
S31581704530FFF7B4FC2C4B2030E855E6701B78A370DE
S31581704540FFF7BEFC009CEAE67F2010403F28B2D17F
S3158170455001300243AFE72A4C0123002523702233B1
S3158170456063703633A170E3702571FFF797FC3378EA
S3158170457020302071A5716371FFF7A2FC049B422BD9
S3158170458000D05CE61F4B1D681F4B1B68ED1AFA261F
S315817045906424B6000BF074FB002801D00BF04AFB43
S315817045A03000013C24F080F8002CF3D12900019869
S315817045B028F0EEFD2A002900144824F0FBFE29001C
S315817045C0134804F0D3FE019B124D013305D1124875
S315817045D02C60013424F0EEFED7E501990F4824F062
S315817045E0E9FE019B2B60D0E5700074817400748143
S315817045F09C0074817100748178007481B0007481BB
S3158170460054007481840074816C0074819C5C7381A4
S31581704610C45C738180E8738176307381542F738122
S31581704620F0B5CE461E001300033B00B582B00092F2
S31581704630012B32D80421012430680DF001FE051E4C
S315817046401BDD10220021706824F060FF144B10224C
S3158170465000211B68C318B068019324F057FF009B33
S3158170466007002000042B04D110220021F06824F069
S315817046704DFF019B013805D20024200002B004BC95
S315817046809146F0BD042D02D11F605B19F2E7022DB0
S3158170469001D11F80F9E71F70F7E701246442ECE7C7
S315817046A0B4007481F0B5CE4600B51E00022A35DDA0
S315817046B0042118680DF0C4FD051E34DB102200211B
S315817046C0706824F023FF102204000021B06824F062
S315817046D01DFF012809D1042D01D12368FDE7022D23
S315817046E001D12388FDE72378FDE7042D06D12200C9
S315817046F00300013BFBD311680432FAE72218022DBD
S3158170470006D122000300013BFBD311880232FAE7FE
S3158170471023009342FCD019780133FAE70120404295
S3158170472004BC9146F0BD0120FAE70000F0B51F0088
S31581704730234BCE4600B584B01B6803920293012A3F
S315817047403BDD012421400E1E1DD01E4B1C681E4B65
S315817047501D682900102028F063FC029B2A000090B6
S3158170476021002000029E23F0BDFC6E43154BA419D7
S31581704770029A00201C60124B1A60134B1D6004B0A4
S3158170478004BC9146F0BD042138680DF059FD0500D1
S315817047902000002DF3DB10223100786824F0B6FEFC
S315817047A00A4B1C68039B0419022BD2D0102231004C
S315817047B0B86824F0ABFE0290CBE701204042DEE779
S315817047C024DE7381B8007481BC007481B4007481F5
S315817047D0F0B5CE4600B51F0088B0042A5AD11100B3
S315817047E0012618680DF02CFD041E43DB2B4D08281D
S315817047F006D02B4D042803D02A4D022800D02A4D8D
S3158170480010220021786824F081FE284E1022002122
S315817048103368C318B868079324F078FE3668102217
S3158170482000218619F86824F071FE079B0200002723
S31581704830F11A8C4661465818974201D1002614E0C8
S31581704840042C1CD119680068814220D0079A049083
S31581704850009129009B1A0394D218F31801260293AA
S3158170486001952300124824F0A5FD2A0039001148CC
S3158170487024F0A0FD300008B004BC9146F0BD022C36
S3158170488002D119880088DFE719780078DCE71B196F
S315817048900137CFE701267642ECE7C046E230738175
S315817048A0E9307381F3307381EE307381B400748132
S315817048B0FC3073812E31738130B5CE4600B5084C8C
S315817048C0012A05DD10220021586824F01FFE206020
S315817048D02168044824F06EFD002004BC914630BDE9
S315817048E0B4007481CB307381F0B5CE4600B51C00AF
S315817048F084B0042A32D11100012518680DF0A0FC0C
S31581704900071E19DB10220021606824F0FFFD154E09
S31581704910102202900021A0683368019324F0F6FD7D
S31581704920102203900021E068366824F0EFFD00289C
S3158170493007D10D480BF0F0F9280004B004BC9146FC
S31581704940F0BD02007A430298019B00258446634438
S315817049501900039BF01828F06BFBEDE701256D427A
S31581704960EAE7C046B400748150317381F0B5CE46A2
S3158170497000B5060082B01F00022A4FD101250D4075
S315817049801ED02C4B1D682C4B1C6829002B48270088
S3158170499024F010FD042C24D12968294824F00AFDBD
S315817049A028480BF051F8002806D0274F012820D1CE
S315817049B03B782D2B1DD16742002EE6D0ED19E4E7A9
S315817049C0042118680DF03CFC04000120002C27DBC3
S315817049D029001022786824F099FD1C4B1D684519B1
S315817049E0D3E7022C02D129881948D7E72978194843
S315817049F0D4E7102201A9380024F088FD019BBB42BF
S31581704A0012D0042C04D12860002EBED02D19BCE79B
S31581704A10022C01D12880F7E72870F5E70120404202
S31581704A2002B004BC9146F0BD024B00201D60024B62
S31581704A301C60F5E7C0007481C4007481CC61738198
S31581704A40D3617381E5617381E80D7481B40074817A
S31581704A50D9617381DF61738190B5CE4600B50120CE
S31581704A60FFF784FF04BC914690BD90B5CE4600B5E4
S31581704A700020FFF77BFF04BC914690BD37B50D00D2
S31581704A80140001A9102224F041FD019B0006000E3D
S31581704A9028701A782D2A05D1581C1D3A002101904B
S31581704AA024F034FD207037BDF0B516009BB01D0023
S31581704AB0012A04DC01277F4238001BB0F0BDD04B40
S31581704AC016AC10A801270F401A78227010AA5B784D
S31581704AD06370CC4B1B689374CB4B1B68D374CB4B75
S31581704AE01A6815AB1A70CA4B1A6815231B181A7077
S31581704AF0C84B1A681A231B181A80C74B1868030487
S31581704B001B0C0693002F35D16B6868681B782370F0
S31581704B1023F0DEFC012837D96B685B786370022ECF
S31581704B2028D010AA13239B1810A91A0012235B1878
S31581704B30A8681900FFF7A2FF032E1BD0152210ABB0
S31581704B40D21815A9E868FFF799FF042E12D01022A2
S31581704B500021286924F0DAFC1A2310AA9B18188080
S31581704B60052E07D010220021686924F0CFFC03043A
S31581704B701B0C069310AB1327FF183B781F2B05D997
S31581704B80A64824F017FC95E76770C8E707F05AFEC8
S31581704B9023780590692B68D1022E2BD010AB3D7886
S31581704BA09C7CAC4229D9002716AA954B117819702D
S31581704BB052785A7010AA12239B181A78914B1A60E0
S31581704BC010AA13239B181A788F4B1A6015AB1A7813
S31581704BD08E4B1A6010AA15239B181A788C4B1A6003
S31581704BE010AA1A239B181A888A4B1A608A4B069ABE
S31581704BF01A6061E71F250024D3E710AB16271726A5
S31581704C00FF18F61817AA00963B002100059807F041
S31581704C1081FE002825D1179B2100059807933B7843
S31581704C2008933378099307F0A9FE21000700059848
S31581704C3007F036FF7A4E002800D07A4E210005980B
S31581704C4007F0E6FE784B2C2800D1784B0393210030
S31581704C50099B029601970093079A089B744824F0E2
S31581704C60A9FB01342406240E9BE7722B54D110AB19
S31581704C7000279C7C15AB10AA1D7813239B181B7873
S31581704C80A34217D290E710AB1A26F61801235B421E
S31581704C902A00338021003300059807F0DDFD002856
S31581704CA021D001272A002100624824F083FB013537
S31581704CB02D062D0E10AB5B7DAB42E4D210A912226C
S31581704CC0521810A81178132212181278914206D0B0
S31581704CD015AA12789A4202D0574824F06BFB013498
S31581704CE02406240EC6E710AA12239B1810A91A78D7
S31581704CF013235B181B789A4204D115AB1A784B7DB6
S31581704D009A4204D02A0021004C4824F053FB318802
S31581704D104B4824F04FFBCAE7772B2AD110AB00277B
S31581704D209C7C012615AB10AA1D7813239B181B78C2
S31581704D30A34210D238E72A002100059807F0A5FD15
S31581704D40002805D037002A0021003E4824F032FB26
S31581704D5001352D062D0E10AA1A239B1810A915221E
S31581704D601B8852181278AA42E5D201342406240E81
S31581704D70D8E76D2B70D110AB00279C7C15AB10AA30
S31581704D801D7813239B181B78A3421AD20CE717AE92
S31581704D90002333802A0033002100059807F05CFDDB
S31581704DA0002818D0284824F005FB012721002748C0
S31581704DB024F000FB2900264824F0FCFA01352D06E3
S31581704DC02D0E152310AA9B181B78AB42DFD20134A6
S31581704DD02406240ED2E7338810A9069A0598934340
S31581704DE01A225218069912880A40210013432A0002
S31581704DF0338007F04AFD0028E0D01648D3E7C046D5
S31581704E00D8007481CC007481C8007481E00074818B
S31581704E10DC007481D0007481D40074819431738183
S31581704E208E317381B63973816531738161317381E5
S31581704E30C13173810832738151677381373273815E
S31581704E405032738156327381833273819E3273810C
S31581704E502C327381A932738102228B49200023F00F
S31581704E601AFB002800D0FEE015AB1B78052B05D800
S31581704E70152310AA9B181B78052B04D98348012703
S31581704E8024F098FA18E610AB07009D7C01230C93E9
S31581704E9015AB10AA1C7813239B181B78AB4215D2BD
S31581704EA082E617AA6300D31829002200059807F0B5
S31581704EB0D3FC002807D0220029007548012724F0E9
S31581704EC079FA00230C9301342406240E152310AA33
S31581704ED09B181B780B93A342E3D20C9B002B06D1B4
S31581704EE001356C482D0624F065FA2D0ED0E715AB89
S31581704EF01B78109300230793109B079A934233D89C
S31581704F000B9B934230D3530017AA9E5A079B6248D4
S31581704F10DB000A930A9A614BD25A08920A9A0899C7
S31581704F209B1832005B6824F045FA331201221A40CD
S31581704F305B4B0E920F9301D05A4B0F93B30901229B
S31581704F401A40730B119201221A40574B12920A9A88
S31581704F509B18139300230993139B099A9B889A42F2
S31581704F6008D34C4824F026FA079B01330793062B06
S31581704F70C2D1B5E7099A0C230A9953434A4A4B48D9
S31581704F808C58E4186388A18899400B0009043340D2
S31581704F90090C0D930D9A089B24F00CFA089B608876
S31581704FA0002B25D106281AD18122414B920132409C
S31581704FB0402A05D080213F4B89018A4200D13E4BE0
S31581704FC001930D22129B06213C480093119B24F07C
S31581704FD0F1F9304824F0EEF9099B0133BBE70828D3
S31581704FE02DD101000F9B0E9A354824F0E3F9F0E735
S31581704FF0089B2188042B10D1002820D1A388314A9F
S315817050003340012B03D0304A022B00D12F4A3048CE
S315817050100092002224F0CEF9DBE7089B052B0ED196
S3158170502000280CD1A388274A3340012B03D0264A06
S31581705030022B00D1254A009200222648EAE7218870
S3158170504081420BD10100244824F0B4F963880D990B
S31581705050A2682248194124F0ADF9BAE702002048C6
S3158170506024F0A8F9F2E702221E49200023F013FAF0
S31581705070071E00D01EE5022E02D107F01FFC93E5B4
S31581705080A86807F0ABFB8FE5C2327381C532738135
S315817050900832738151677381093373818CDD7281B3
S315817050A038337381333373816CD872813D337381B5
S315817050B058B173816D317381693173815033738165
S315817050C07F33738170317381903173817B31738159
S315817050D09B337381BA337381DC337381EB33738121
S315817050E0E333738166587381F7B5170001901E009B
S315817050F00D000A225868013F13490CF025FE331DB5
S31581705100041E00931DD04368BB421ADB012D02D168
S315817051108068002814D00D4E3368002B05DA12F0A2
S315817051207BFC002808DD00233360E4683A00009B2D
S3158170513029000198A04703E005480AF0EDFD01209A
S31581705140FEBD01204042FBE728DE738140DF73811B
S31581705150C837738170B505000E0012F00DFC041E00
S3158170516005D12900084824F025F9200070BD002E4C
S3158170517001D000234361200012F070FB43425841F5
S3158170518040420440F1E7C0468E587381044B012139
S3158170519010B51868FFF7DEFF4342584110BDC0460F
S315817051A040DF7381F0B595B0029200212C2209A857
S315817051B00493012427F04CFFBB4B00211868FFF73D
S315817051C0C9FF0690002808D0002325000193029B11
S315817051D0002B00DDE6E001246442200015B0F0BDAD
S315817051E0049BAE00B1499F19386823F047F9041EB4
S315817051F057D16B1C043607930100079A09A8029B45
S315817052009B1A0C220393049B9B19059327F020FF0D
S31581705210039BA34202DC079B1D19C3E0059BA50076
S31581705220A3495E19306823F029F9071E11D1039AB3
S31581705230A31C9A42CFDD01000A227068033424F0E0
S3158170524065F90A2209903900B06824F05FF90A90ED
S31581705250DEE79849306823F011F90028DBD1039A8B
S31581705260631C9A42B7DD09AE0122337A04359249BD
S3158170527013433372059B5D19286823F0FFF8002864
S3158170528005D1337A0222134333720234C0E78B49D4
S31581705290286823F0F3F800289DD1337A022293434C
S315817052A0F2E702228649386823F0F5F8041E71D137
S315817052B0386823F00DF903286CD13B689B781A0006
S315817052C0313A05921206120E032A63D86A1C303B54
S315817052D00792DD00079909AB029A0436281D1818C2
S315817052E0521A21000392049A9619082227F0B0FE69
S315817052F0039B012B00DC6EE70A222100306824F0C3
S3158170530005F909AB5D1968600125AF006849F41923
S31581705310206823F0B3F800280FD1059B09AA0121D3
S315817053206D180133DB00D3181A7A0A431A72039BFC
S315817053309D42EADB079B5D1934E05E49206823F064
S315817053409DF80028F6D1039A6B1C9A4200DC42E7DD
S31581705350059B022204375849F7195C1C09ABE40096
S3158170536038681C19237A1343237223F087F800282F
S3158170537005D1237A0422134323720235D7E74F4925
S31581705380386823F07BF8002800D024E7237A04223A
S315817053909343F1E74B49386823F070F8002861D15F
S315817053A001350190029B9D4200DA19E7464809ADA5
S315817053B00AF0B2FC6B68002B68D044480AF0ACFCEA
S315817053C0434C09982200C10D400222F021FE4148CA
S315817053D00AF0A2FC68682200C10D400222F018FE14
S315817053E02B7ADA0706D535499B0700D532493A4873
S315817053F023F0E0FF0024E700661CEB193100DB68BF
S31581705400002B47D03548EF1923F0D4FFF300F868A5
S31581705410EB182F4A1B7AC10D4002DB0700D5304A43
S3158170542022F0F6FD0134E4002C19237A9A0707D508
S31581705430224A5B0700D5204A31002A4823F0BAFFF9
S315817054403400042ED7D1019A2900069811F056FAA4
S31581705450041E23D1019B022B00D0BEE622480AF09E
S315817054605BFCBAE62149386823F008F8002803D135
S3158170547001350123019395E71D49386822F0FEFFB6
S31581705480002800D0A7E601350223F3E719480AF010
S3158170549043FCA5E7184823F08DFFC3E7174801241D
S315817054A00AF03AFC99E6C04640DF7381E534738130
S315817054B0EA347381EE34738194B77381861B7381F9
S315817054C0F434738118587381F7347381113573810C
S315817054D051677381283573815B35738182357381A9
S315817054E0DF347381A7357381C435738105587381B0
S315817054F06C9173813E35738193357381FC3573817C
S3158170550010B50A2012F0B6FA002010BDF8B51D004C
